{
  "contractName": "Reputation",
  "abi": [
    {
      "anonymous": false,
      "inputs": [
        {
          "indexed": true,
          "internalType": "address",
          "name": "owner",
          "type": "address"
        },
        {
          "indexed": true,
          "internalType": "address",
          "name": "spender",
          "type": "address"
        },
        {
          "indexed": false,
          "internalType": "uint256",
          "name": "value",
          "type": "uint256"
        }
      ],
      "name": "Approval",
      "type": "event"
    },
    {
      "anonymous": false,
      "inputs": [
        {
          "indexed": true,
          "internalType": "address",
          "name": "previousOwner",
          "type": "address"
        },
        {
          "indexed": true,
          "internalType": "address",
          "name": "newOwner",
          "type": "address"
        }
      ],
      "name": "OwnershipTransferred",
      "type": "event"
    },
    {
      "anonymous": false,
      "inputs": [
        {
          "indexed": true,
          "internalType": "address",
          "name": "from",
          "type": "address"
        },
        {
          "indexed": true,
          "internalType": "address",
          "name": "to",
          "type": "address"
        },
        {
          "indexed": false,
          "internalType": "uint256",
          "name": "value",
          "type": "uint256"
        }
      ],
      "name": "Transfer",
      "type": "event"
    },
    {
      "inputs": [
        {
          "internalType": "address",
          "name": "owner",
          "type": "address"
        },
        {
          "internalType": "address",
          "name": "spender",
          "type": "address"
        }
      ],
      "name": "allowance",
      "outputs": [
        {
          "internalType": "uint256",
          "name": "",
          "type": "uint256"
        }
      ],
      "stateMutability": "view",
      "type": "function",
      "constant": true
    },
    {
      "inputs": [
        {
          "internalType": "address",
          "name": "spender",
          "type": "address"
        },
        {
          "internalType": "uint256",
          "name": "amount",
          "type": "uint256"
        }
      ],
      "name": "approve",
      "outputs": [
        {
          "internalType": "bool",
          "name": "",
          "type": "bool"
        }
      ],
      "stateMutability": "nonpayable",
      "type": "function"
    },
    {
      "inputs": [
        {
          "internalType": "address",
          "name": "account",
          "type": "address"
        }
      ],
      "name": "balanceOf",
      "outputs": [
        {
          "internalType": "uint256",
          "name": "",
          "type": "uint256"
        }
      ],
      "stateMutability": "view",
      "type": "function",
      "constant": true
    },
    {
      "inputs": [
        {
          "internalType": "uint256",
          "name": "amount",
          "type": "uint256"
        }
      ],
      "name": "burn",
      "outputs": [],
      "stateMutability": "nonpayable",
      "type": "function"
    },
    {
      "inputs": [],
      "name": "decimals",
      "outputs": [
        {
          "internalType": "uint8",
          "name": "",
          "type": "uint8"
        }
      ],
      "stateMutability": "view",
      "type": "function",
      "constant": true
    },
    {
      "inputs": [
        {
          "internalType": "address",
          "name": "spender",
          "type": "address"
        },
        {
          "internalType": "uint256",
          "name": "subtractedValue",
          "type": "uint256"
        }
      ],
      "name": "decreaseAllowance",
      "outputs": [
        {
          "internalType": "bool",
          "name": "",
          "type": "bool"
        }
      ],
      "stateMutability": "nonpayable",
      "type": "function"
    },
    {
      "inputs": [
        {
          "internalType": "address",
          "name": "spender",
          "type": "address"
        },
        {
          "internalType": "uint256",
          "name": "addedValue",
          "type": "uint256"
        }
      ],
      "name": "increaseAllowance",
      "outputs": [
        {
          "internalType": "bool",
          "name": "",
          "type": "bool"
        }
      ],
      "stateMutability": "nonpayable",
      "type": "function"
    },
    {
      "inputs": [],
      "name": "name",
      "outputs": [
        {
          "internalType": "string",
          "name": "",
          "type": "string"
        }
      ],
      "stateMutability": "view",
      "type": "function",
      "constant": true
    },
    {
      "inputs": [],
      "name": "owner",
      "outputs": [
        {
          "internalType": "address",
          "name": "",
          "type": "address"
        }
      ],
      "stateMutability": "view",
      "type": "function",
      "constant": true
    },
    {
      "inputs": [],
      "name": "renounceOwnership",
      "outputs": [],
      "stateMutability": "nonpayable",
      "type": "function"
    },
    {
      "inputs": [],
      "name": "symbol",
      "outputs": [
        {
          "internalType": "string",
          "name": "",
          "type": "string"
        }
      ],
      "stateMutability": "view",
      "type": "function",
      "constant": true
    },
    {
      "inputs": [],
      "name": "totalSupply",
      "outputs": [
        {
          "internalType": "uint256",
          "name": "",
          "type": "uint256"
        }
      ],
      "stateMutability": "view",
      "type": "function",
      "constant": true
    },
    {
      "inputs": [
        {
          "internalType": "address",
          "name": "from",
          "type": "address"
        },
        {
          "internalType": "address",
          "name": "to",
          "type": "address"
        },
        {
          "internalType": "uint256",
          "name": "amount",
          "type": "uint256"
        }
      ],
      "name": "transferFrom",
      "outputs": [
        {
          "internalType": "bool",
          "name": "",
          "type": "bool"
        }
      ],
      "stateMutability": "nonpayable",
      "type": "function"
    },
    {
      "inputs": [
        {
          "internalType": "address",
          "name": "newOwner",
          "type": "address"
        }
      ],
      "name": "transferOwnership",
      "outputs": [],
      "stateMutability": "nonpayable",
      "type": "function"
    },
    {
      "inputs": [
        {
          "internalType": "address",
          "name": "",
          "type": "address"
        }
      ],
      "name": "whitelist",
      "outputs": [
        {
          "internalType": "bool",
          "name": "",
          "type": "bool"
        }
      ],
      "stateMutability": "view",
      "type": "function",
      "constant": true
    },
    {
      "inputs": [
        {
          "internalType": "address[]",
          "name": "tokenHolders",
          "type": "address[]"
        },
        {
          "internalType": "uint256[]",
          "name": "amounts",
          "type": "uint256[]"
        }
      ],
      "name": "initialize",
      "outputs": [],
      "stateMutability": "nonpayable",
      "type": "function"
    },
    {
      "inputs": [
        {
          "internalType": "address",
          "name": "to",
          "type": "address"
        },
        {
          "internalType": "uint256",
          "name": "amount",
          "type": "uint256"
        }
      ],
      "name": "mint",
      "outputs": [],
      "stateMutability": "nonpayable",
      "type": "function"
    },
    {
      "inputs": [
        {
          "internalType": "address[]",
          "name": "tokenHolders",
          "type": "address[]"
        },
        {
          "internalType": "uint256[]",
          "name": "amounts",
          "type": "uint256[]"
        }
      ],
      "name": "mintMultiple",
      "outputs": [],
      "stateMutability": "nonpayable",
      "type": "function"
    },
    {
      "inputs": [
        {
          "internalType": "address",
          "name": "account",
          "type": "address"
        },
        {
          "internalType": "uint256",
          "name": "amount",
          "type": "uint256"
        }
      ],
      "name": "burnFrom",
      "outputs": [],
      "stateMutability": "nonpayable",
      "type": "function"
    },
    {
      "inputs": [
        {
          "internalType": "address",
          "name": "recipient",
          "type": "address"
        },
        {
          "internalType": "uint256",
          "name": "amount",
          "type": "uint256"
        }
      ],
      "name": "transfer",
      "outputs": [
        {
          "internalType": "bool",
          "name": "",
          "type": "bool"
        }
      ],
      "stateMutability": "nonpayable",
      "type": "function"
    },
    {
      "inputs": [
        {
          "internalType": "address",
          "name": "_add",
          "type": "address"
        }
      ],
      "name": "whitelistAdd",
      "outputs": [],
      "stateMutability": "nonpayable",
      "type": "function"
    }
  ],
  "bytecode": "0x608060405234801561001057600080fd5b50612b1b806100206000396000f3fe608060405234801561001057600080fd5b50600436106101375760003560e01c806370a08231116100b857806395d89b411161007c57806395d89b41146103265780639b19251a14610344578063a457c2d714610374578063a9059cbb146103a4578063dd62ed3e146103d4578063f2fde38b1461040457610137565b806370a0823114610296578063715018a6146102c657806379cc6790146102d05780637fbbe46f146102ec5780638da5cb5b1461030857610137565b8063313ce567116100ff578063313ce567146101f4578063395093511461021257806340c10f191461024257806342966c681461025e578063524fa7b91461027a57610137565b806306fdde031461013c57806307ea54771461015a578063095ea7b31461017657806318160ddd146101a657806323b872dd146101c4575b600080fd5b610144610420565b6040516101519190611b6a565b60405180910390f35b610174600480360381019061016f9190611e3f565b6104b2565b005b610190600480360381019061018b9190611eb7565b6105d4565b60405161019d9190611f12565b60405180910390f35b6101ae6105f7565b6040516101bb9190611f3c565b60405180910390f35b6101de60048036038101906101d99190611f57565b610601565b6040516101eb9190611f12565b60405180910390f35b6101fc610630565b6040516102099190611fc6565b60405180910390f35b61022c60048036038101906102279190611eb7565b610639565b6040516102399190611f12565b60405180910390f35b61025c60048036038101906102579190611eb7565b6106e3565b005b61027860048036038101906102739190611fe1565b61076d565b005b610294600480360381019061028f919061200e565b610781565b005b6102b060048036038101906102ab919061200e565b610858565b6040516102bd9190611f3c565b60405180910390f35b6102ce6108a1565b005b6102ea60048036038101906102e59190611eb7565b610929565b005b61030660048036038101906103019190611e3f565b6109b3565b005b610310610b27565b60405161031d919061204a565b60405180910390f35b61032e610b51565b60405161033b9190611b6a565b60405180910390f35b61035e6004803603810190610359919061200e565b610be3565b60405161036b9190611f12565b60405180910390f35b61038e60048036038101906103899190611eb7565b610c03565b60405161039b9190611f12565b60405180910390f35b6103be60048036038101906103b99190611eb7565b610ced565b6040516103cb9190611f12565b60405180910390f35b6103ee60048036038101906103e99190612065565b610da5565b6040516103fb9190611f3c565b60405180910390f35b61041e6004803603810190610419919061200e565b610e2c565b005b60606036805461042f906120d4565b80601f016020809104026020016040519081016040528092919081815260200182805461045b906120d4565b80156104a85780601f1061047d576101008083540402835291602001916104a8565b820191906000526020600020905b81548152906001019060200180831161048b57829003601f168201915b5050505050905090565b6104ba610f24565b73ffffffffffffffffffffffffffffffffffffffff166104d8610b27565b73ffffffffffffffffffffffffffffffffffffffff161461052e576040517f08c379a000000000000000000000000000000000000000000000000000000000815260040161052590612152565b60405180910390fd5b8051825114610572576040517f08c379a0000000000000000000000000000000000000000000000000000000008152600401610569906121e4565b60405180910390fd5b60005b82518110156105cf576105bc83828151811061059457610593612204565b5b60200260200101518383815181106105af576105ae612204565b5b60200260200101516106e3565b80806105c790612262565b915050610575565b505050565b6000806105df610f24565b90506105ec818585610f2c565b600191505092915050565b6000603554905090565b60008061060c610f24565b90506106198582856110f7565b610624858585611183565b60019150509392505050565b60006012905090565b600080610644610f24565b90506106d8818585603460008673ffffffffffffffffffffffffffffffffffffffff1673ffffffffffffffffffffffffffffffffffffffff16815260200190815260200160002060008973ffffffffffffffffffffffffffffffffffffffff1673ffffffffffffffffffffffffffffffffffffffff168152602001908152602001600020546106d391906122ab565b610f2c565b600191505092915050565b6106eb610f24565b73ffffffffffffffffffffffffffffffffffffffff16610709610b27565b73ffffffffffffffffffffffffffffffffffffffff161461075f576040517f08c379a000000000000000000000000000000000000000000000000000000000815260040161075690612152565b60405180910390fd5b6107698282611407565b5050565b61077e610778610f24565b82611568565b50565b610789610f24565b73ffffffffffffffffffffffffffffffffffffffff166107a7610b27565b73ffffffffffffffffffffffffffffffffffffffff16146107fd576040517f08c379a00000000000000000000000000000000000000000000000000000000081526004016107f490612152565b60405180910390fd5b600160c960008373ffffffffffffffffffffffffffffffffffffffff1673ffffffffffffffffffffffffffffffffffffffff16815260200190815260200160002060006101000a81548160ff02191690831515021790555050565b6000603360008373ffffffffffffffffffffffffffffffffffffffff1673ffffffffffffffffffffffffffffffffffffffff168152602001908152602001600020549050919050565b6108a9610f24565b73ffffffffffffffffffffffffffffffffffffffff166108c7610b27565b73ffffffffffffffffffffffffffffffffffffffff161461091d576040517f08c379a000000000000000000000000000000000000000000000000000000000815260040161091490612152565b60405180910390fd5b6109276000611741565b565b610931610f24565b73ffffffffffffffffffffffffffffffffffffffff1661094f610b27565b73ffffffffffffffffffffffffffffffffffffffff16146109a5576040517f08c379a000000000000000000000000000000000000000000000000000000000815260040161099c90612152565b60405180910390fd5b6109af8282611568565b5050565b600060019054906101000a900460ff166109db5760008054906101000a900460ff16156109e4565b6109e3611807565b5b610a23576040517f08c379a0000000000000000000000000000000000000000000000000000000008152600401610a1a90612373565b60405180910390fd5b60008060019054906101000a900460ff161590508015610a73576001600060016101000a81548160ff02191690831515021790555060016000806101000a81548160ff0219169083151502179055505b610a7b611818565b610a83611871565b610af76040518060400160405280600c81526020017f44654649524520464c41524500000000000000000000000000000000000000008152506040518060400160405280600581526020017f464c4152450000000000000000000000000000000000000000000000000000008152506118c2565b610b0183836104b2565b8015610b225760008060016101000a81548160ff0219169083151502179055505b505050565b6000609760009054906101000a900473ffffffffffffffffffffffffffffffffffffffff16905090565b606060378054610b60906120d4565b80601f0160208091040260200160405190810160405280929190818152602001828054610b8c906120d4565b8015610bd95780601f10610bae57610100808354040283529160200191610bd9565b820191906000526020600020905b815481529060010190602001808311610bbc57829003601f168201915b5050505050905090565b60c96020528060005260406000206000915054906101000a900460ff1681565b600080610c0e610f24565b90506000603460008373ffffffffffffffffffffffffffffffffffffffff1673ffffffffffffffffffffffffffffffffffffffff16815260200190815260200160002060008673ffffffffffffffffffffffffffffffffffffffff1673ffffffffffffffffffffffffffffffffffffffff16815260200190815260200160002054905083811015610cd4576040517f08c379a0000000000000000000000000000000000000000000000000000000008152600401610ccb90612405565b60405180910390fd5b610ce18286868403610f2c565b60019250505092915050565b60006001151560c96000610cff610f24565b73ffffffffffffffffffffffffffffffffffffffff1673ffffffffffffffffffffffffffffffffffffffff16815260200190815260200160002060009054906101000a900460ff16151514610d89576040517f08c379a0000000000000000000000000000000000000000000000000000000008152600401610d8090612497565b60405180910390fd5b610d9b610d94610f24565b8484611183565b6001905092915050565b6000603460008473ffffffffffffffffffffffffffffffffffffffff1673ffffffffffffffffffffffffffffffffffffffff16815260200190815260200160002060008373ffffffffffffffffffffffffffffffffffffffff1673ffffffffffffffffffffffffffffffffffffffff16815260200190815260200160002054905092915050565b610e34610f24565b73ffffffffffffffffffffffffffffffffffffffff16610e52610b27565b73ffffffffffffffffffffffffffffffffffffffff1614610ea8576040517f08c379a0000000000000000000000000000000000000000000000000000000008152600401610e9f90612152565b60405180910390fd5b600073ffffffffffffffffffffffffffffffffffffffff168173ffffffffffffffffffffffffffffffffffffffff161415610f18576040517f08c379a0000000000000000000000000000000000000000000000000000000008152600401610f0f90612529565b60405180910390fd5b610f2181611741565b50565b600033905090565b600073ffffffffffffffffffffffffffffffffffffffff168373ffffffffffffffffffffffffffffffffffffffff161415610f9c576040517f08c379a0000000000000000000000000000000000000000000000000000000008152600401610f93906125bb565b60405180910390fd5b600073ffffffffffffffffffffffffffffffffffffffff168273ffffffffffffffffffffffffffffffffffffffff16141561100c576040517f08c379a00000000000000000000000000000000000000000000000000000000081526004016110039061264d565b60405180910390fd5b80603460008573ffffffffffffffffffffffffffffffffffffffff1673ffffffffffffffffffffffffffffffffffffffff16815260200190815260200160002060008473ffffffffffffffffffffffffffffffffffffffff1673ffffffffffffffffffffffffffffffffffffffff168152602001908152602001600020819055508173ffffffffffffffffffffffffffffffffffffffff168373ffffffffffffffffffffffffffffffffffffffff167f8c5be1e5ebec7d5bd14f71427d1e84f3dd0314c0f7b2291e5b200ac8c7c3b925836040516110ea9190611f3c565b60405180910390a3505050565b60006111038484610da5565b90507fffffffffffffffffffffffffffffffffffffffffffffffffffffffffffffffff811461117d578181101561116f576040517f08c379a0000000000000000000000000000000000000000000000000000000008152600401611166906126b9565b60405180910390fd5b61117c8484848403610f2c565b5b50505050565b600073ffffffffffffffffffffffffffffffffffffffff168373ffffffffffffffffffffffffffffffffffffffff1614156111f3576040517f08c379a00000000000000000000000000000000000000000000000000000000081526004016111ea9061274b565b60405180910390fd5b600073ffffffffffffffffffffffffffffffffffffffff168273ffffffffffffffffffffffffffffffffffffffff161415611263576040517f08c379a000000000000000000000000000000000000000000000000000000000815260040161125a906127dd565b60405180910390fd5b61126e83838361191f565b6000603360008573ffffffffffffffffffffffffffffffffffffffff1673ffffffffffffffffffffffffffffffffffffffff168152602001908152602001600020549050818110156112f5576040517f08c379a00000000000000000000000000000000000000000000000000000000081526004016112ec9061286f565b60405180910390fd5b818103603360008673ffffffffffffffffffffffffffffffffffffffff1673ffffffffffffffffffffffffffffffffffffffff1681526020019081526020016000208190555081603360008573ffffffffffffffffffffffffffffffffffffffff1673ffffffffffffffffffffffffffffffffffffffff168152602001908152602001600020600082825461138a91906122ab565b925050819055508273ffffffffffffffffffffffffffffffffffffffff168473ffffffffffffffffffffffffffffffffffffffff167fddf252ad1be2c89b69c2b068fc378daa952ba7f163c4a11628f55a4df523b3ef846040516113ee9190611f3c565b60405180910390a3611401848484611924565b50505050565b600073ffffffffffffffffffffffffffffffffffffffff168273ffffffffffffffffffffffffffffffffffffffff161415611477576040517f08c379a000000000000000000000000000000000000000000000000000000000815260040161146e906128db565b60405180910390fd5b6114836000838361191f565b806035600082825461149591906122ab565b9250508190555080603360008473ffffffffffffffffffffffffffffffffffffffff1673ffffffffffffffffffffffffffffffffffffffff16815260200190815260200160002060008282546114eb91906122ab565b925050819055508173ffffffffffffffffffffffffffffffffffffffff16600073ffffffffffffffffffffffffffffffffffffffff167fddf252ad1be2c89b69c2b068fc378daa952ba7f163c4a11628f55a4df523b3ef836040516115509190611f3c565b60405180910390a361156460008383611924565b5050565b600073ffffffffffffffffffffffffffffffffffffffff168273ffffffffffffffffffffffffffffffffffffffff1614156115d8576040517f08c379a00000000000000000000000000000000000000000000000000000000081526004016115cf9061296d565b60405180910390fd5b6115e48260008361191f565b6000603360008473ffffffffffffffffffffffffffffffffffffffff1673ffffffffffffffffffffffffffffffffffffffff1681526020019081526020016000205490508181101561166b576040517f08c379a0000000000000000000000000000000000000000000000000000000008152600401611662906129ff565b60405180910390fd5b818103603360008573ffffffffffffffffffffffffffffffffffffffff1673ffffffffffffffffffffffffffffffffffffffff1681526020019081526020016000208190555081603560008282546116c39190612a1f565b92505081905550600073ffffffffffffffffffffffffffffffffffffffff168373ffffffffffffffffffffffffffffffffffffffff167fddf252ad1be2c89b69c2b068fc378daa952ba7f163c4a11628f55a4df523b3ef846040516117289190611f3c565b60405180910390a361173c83600084611924565b505050565b6000609760009054906101000a900473ffffffffffffffffffffffffffffffffffffffff16905081609760006101000a81548173ffffffffffffffffffffffffffffffffffffffff021916908373ffffffffffffffffffffffffffffffffffffffff1602179055508173ffffffffffffffffffffffffffffffffffffffff168173ffffffffffffffffffffffffffffffffffffffff167f8be0079c531659141344cd1fd0a4f28419497f9722a3daafe3b4186f6b6457e060405160405180910390a35050565b600061181230611929565b15905090565b600060019054906101000a900460ff16611867576040517f08c379a000000000000000000000000000000000000000000000000000000000815260040161185e90612ac5565b60405180910390fd5b61186f61194c565b565b600060019054906101000a900460ff166118c0576040517f08c379a00000000000000000000000000000000000000000000000000000000081526004016118b790612ac5565b60405180910390fd5b565b600060019054906101000a900460ff16611911576040517f08c379a000000000000000000000000000000000000000000000000000000000815260040161190890612ac5565b60405180910390fd5b61191b82826119ad565b5050565b505050565b505050565b6000808273ffffffffffffffffffffffffffffffffffffffff163b119050919050565b600060019054906101000a900460ff1661199b576040517f08c379a000000000000000000000000000000000000000000000000000000000815260040161199290612ac5565b60405180910390fd5b6119ab6119a6610f24565b611741565b565b600060019054906101000a900460ff166119fc576040517f08c379a00000000000000000000000000000000000000000000000000000000081526004016119f390612ac5565b60405180910390fd5b8160369080519060200190611a12929190611a2e565b508060379080519060200190611a29929190611a2e565b505050565b828054611a3a906120d4565b90600052602060002090601f016020900481019282611a5c5760008555611aa3565b82601f10611a7557805160ff1916838001178555611aa3565b82800160010185558215611aa3579182015b82811115611aa2578251825591602001919060010190611a87565b5b509050611ab09190611ab4565b5090565b5b80821115611acd576000816000905550600101611ab5565b5090565b600081519050919050565b600082825260208201905092915050565b60005b83811015611b0b578082015181840152602081019050611af0565b83811115611b1a576000848401525b50505050565b6000601f19601f8301169050919050565b6000611b3c82611ad1565b611b468185611adc565b9350611b56818560208601611aed565b611b5f81611b20565b840191505092915050565b60006020820190508181036000830152611b848184611b31565b905092915050565b6000604051905090565b600080fd5b600080fd5b600080fd5b7f4e487b7100000000000000000000000000000000000000000000000000000000600052604160045260246000fd5b611bdd82611b20565b810181811067ffffffffffffffff82111715611bfc57611bfb611ba5565b5b80604052505050565b6000611c0f611b8c565b9050611c1b8282611bd4565b919050565b600067ffffffffffffffff821115611c3b57611c3a611ba5565b5b602082029050602081019050919050565b600080fd5b600073ffffffffffffffffffffffffffffffffffffffff82169050919050565b6000611c7c82611c51565b9050919050565b611c8c81611c71565b8114611c9757600080fd5b50565b600081359050611ca981611c83565b92915050565b6000611cc2611cbd84611c20565b611c05565b90508083825260208201905060208402830185811115611ce557611ce4611c4c565b5b835b81811015611d0e5780611cfa8882611c9a565b845260208401935050602081019050611ce7565b5050509392505050565b600082601f830112611d2d57611d2c611ba0565b5b8135611d3d848260208601611caf565b91505092915050565b600067ffffffffffffffff821115611d6157611d60611ba5565b5b602082029050602081019050919050565b6000819050919050565b611d8581611d72565b8114611d9057600080fd5b50565b600081359050611da281611d7c565b92915050565b6000611dbb611db684611d46565b611c05565b90508083825260208201905060208402830185811115611dde57611ddd611c4c565b5b835b81811015611e075780611df38882611d93565b845260208401935050602081019050611de0565b5050509392505050565b600082601f830112611e2657611e25611ba0565b5b8135611e36848260208601611da8565b91505092915050565b60008060408385031215611e5657611e55611b96565b5b600083013567ffffffffffffffff811115611e7457611e73611b9b565b5b611e8085828601611d18565b925050602083013567ffffffffffffffff811115611ea157611ea0611b9b565b5b611ead85828601611e11565b9150509250929050565b60008060408385031215611ece57611ecd611b96565b5b6000611edc85828601611c9a565b9250506020611eed85828601611d93565b9150509250929050565b60008115159050919050565b611f0c81611ef7565b82525050565b6000602082019050611f276000830184611f03565b92915050565b611f3681611d72565b82525050565b6000602082019050611f516000830184611f2d565b92915050565b600080600060608486031215611f7057611f6f611b96565b5b6000611f7e86828701611c9a565b9350506020611f8f86828701611c9a565b9250506040611fa086828701611d93565b9150509250925092565b600060ff82169050919050565b611fc081611faa565b82525050565b6000602082019050611fdb6000830184611fb7565b92915050565b600060208284031215611ff757611ff6611b96565b5b600061200584828501611d93565b91505092915050565b60006020828403121561202457612023611b96565b5b600061203284828501611c9a565b91505092915050565b61204481611c71565b82525050565b600060208201905061205f600083018461203b565b92915050565b6000806040838503121561207c5761207b611b96565b5b600061208a85828601611c9a565b925050602061209b85828601611c9a565b9150509250929050565b7f4e487b7100000000000000000000000000000000000000000000000000000000600052602260045260246000fd5b600060028204905060018216806120ec57607f821691505b60208210811415612100576120ff6120a5565b5b50919050565b7f4f776e61626c653a2063616c6c6572206973206e6f7420746865206f776e6572600082015250565b600061213c602083611adc565b915061214782612106565b602082019050919050565b6000602082019050818103600083015261216b8161212f565b9050919050565b7f546f6b656e20686f6c6465727320616e6420616d6f756e7473206c656e67746860008201527f73206d757374206d617463680000000000000000000000000000000000000000602082015250565b60006121ce602c83611adc565b91506121d982612172565b604082019050919050565b600060208201905081810360008301526121fd816121c1565b9050919050565b7f4e487b7100000000000000000000000000000000000000000000000000000000600052603260045260246000fd5b7f4e487b7100000000000000000000000000000000000000000000000000000000600052601160045260246000fd5b600061226d82611d72565b91507fffffffffffffffffffffffffffffffffffffffffffffffffffffffffffffffff8214156122a05761229f612233565b5b600182019050919050565b60006122b682611d72565b91506122c183611d72565b9250827fffffffffffffffffffffffffffffffffffffffffffffffffffffffffffffffff038211156122f6576122f5612233565b5b828201905092915050565b7f496e697469616c697a61626c653a20636f6e747261637420697320616c72656160008201527f647920696e697469616c697a6564000000000000000000000000000000000000602082015250565b600061235d602e83611adc565b915061236882612301565b604082019050919050565b6000602082019050818103600083015261238c81612350565b9050919050565b7f45524332303a2064656372656173656420616c6c6f77616e63652062656c6f7760008201527f207a65726f000000000000000000000000000000000000000000000000000000602082015250565b60006123ef602583611adc565b91506123fa82612393565b604082019050919050565b6000602082019050818103600083015261241e816123e2565b9050919050565b7f4465464952452052657075746174696f6e3a2063616c6c6572206973206e6f7460008201527f20612077686974656c6973746564206164647265737300000000000000000000602082015250565b6000612481603683611adc565b915061248c82612425565b604082019050919050565b600060208201905081810360008301526124b081612474565b9050919050565b7f4f776e61626c653a206e6577206f776e657220697320746865207a65726f206160008201527f6464726573730000000000000000000000000000000000000000000000000000602082015250565b6000612513602683611adc565b915061251e826124b7565b604082019050919050565b6000602082019050818103600083015261254281612506565b9050919050565b7f45524332303a20617070726f76652066726f6d20746865207a65726f2061646460008201527f7265737300000000000000000000000000000000000000000000000000000000602082015250565b60006125a5602483611adc565b91506125b082612549565b604082019050919050565b600060208201905081810360008301526125d481612598565b9050919050565b7f45524332303a20617070726f766520746f20746865207a65726f20616464726560008201527f7373000000000000000000000000000000000000000000000000000000000000602082015250565b6000612637602283611adc565b9150612642826125db565b604082019050919050565b600060208201905081810360008301526126668161262a565b9050919050565b7f45524332303a20696e73756666696369656e7420616c6c6f77616e6365000000600082015250565b60006126a3601d83611adc565b91506126ae8261266d565b602082019050919050565b600060208201905081810360008301526126d281612696565b9050919050565b7f45524332303a207472616e736665722066726f6d20746865207a65726f20616460008201527f6472657373000000000000000000000000000000000000000000000000000000602082015250565b6000612735602583611adc565b9150612740826126d9565b604082019050919050565b6000602082019050818103600083015261276481612728565b9050919050565b7f45524332303a207472616e7366657220746f20746865207a65726f206164647260008201527f6573730000000000000000000000000000000000000000000000000000000000602082015250565b60006127c7602383611adc565b91506127d28261276b565b604082019050919050565b600060208201905081810360008301526127f6816127ba565b9050919050565b7f45524332303a207472616e7366657220616d6f756e742065786365656473206260008201527f616c616e63650000000000000000000000000000000000000000000000000000602082015250565b6000612859602683611adc565b9150612864826127fd565b604082019050919050565b600060208201905081810360008301526128888161284c565b9050919050565b7f45524332303a206d696e7420746f20746865207a65726f206164647265737300600082015250565b60006128c5601f83611adc565b91506128d08261288f565b602082019050919050565b600060208201905081810360008301526128f4816128b8565b9050919050565b7f45524332303a206275726e2066726f6d20746865207a65726f2061646472657360008201527f7300000000000000000000000000000000000000000000000000000000000000602082015250565b6000612957602183611adc565b9150612962826128fb565b604082019050919050565b600060208201905081810360008301526129868161294a565b9050919050565b7f45524332303a206275726e20616d6f756e7420657863656564732062616c616e60008201527f6365000000000000000000000000000000000000000000000000000000000000602082015250565b60006129e9602283611adc565b91506129f48261298d565b604082019050919050565b60006020820190508181036000830152612a18816129dc565b9050919050565b6000612a2a82611d72565b9150612a3583611d72565b925082821015612a4857612a47612233565b5b828203905092915050565b7f496e697469616c697a61626c653a20636f6e7472616374206973206e6f74206960008201527f6e697469616c697a696e67000000000000000000000000000000000000000000602082015250565b6000612aaf602b83611adc565b9150612aba82612a53565b604082019050919050565b60006020820190508181036000830152612ade81612aa2565b905091905056fea2646970667358221220d4d556aa2992999bcd58c44e4c98bc348d04c8856f15698ee15606f1f8e919c264736f6c634300080c0033",
  "immutableReferences": {},
  "source": "// SPDX-License-Identifier: LGPL-3.0-only\r\npragma solidity ^0.8.0;\r\n\r\nimport \"@openzeppelin/contracts-upgradeable/proxy/utils/Initializable.sol\";\r\nimport \"@openzeppelin/contracts-upgradeable/token/ERC20/ERC20Upgradeable.sol\";\r\nimport \"@openzeppelin/contracts-upgradeable/token/ERC20/extensions/ERC20BurnableUpgradeable.sol\";\r\nimport \"@openzeppelin/contracts-upgradeable/access/OwnableUpgradeable.sol\";\r\n\r\ncontract Reputation is\r\n    Initializable,\r\n    ERC20BurnableUpgradeable,\r\n    OwnableUpgradeable\r\n{\r\n    mapping(address => bool) public whitelist;\r\n\r\n    modifier onlyWhitelisted() {\r\n        require(\r\n            whitelist[_msgSender()] == true,\r\n            \"DeFIRE Reputation: caller is not a whitelisted address\"\r\n        );\r\n        _;\r\n    }\r\n\r\n    function initialize(address[] memory tokenHolders, uint256[] memory amounts)\r\n        public\r\n        initializer\r\n    {\r\n        OwnableUpgradeable.__Ownable_init();\r\n        ERC20BurnableUpgradeable.__ERC20Burnable_init();\r\n        ERC20Upgradeable.__ERC20_init(\"DeFIRE FLARE\", \"FLARE\");\r\n        mintMultiple(tokenHolders, amounts);\r\n    }\r\n\r\n    function mint(address to, uint256 amount) public onlyOwner {\r\n        super._mint(to, amount);\r\n    }\r\n\r\n    function mintMultiple(\r\n        address[] memory tokenHolders,\r\n        uint256[] memory amounts\r\n    ) public onlyOwner {\r\n        require(\r\n            tokenHolders.length == amounts.length,\r\n            \"Token holders and amounts lengths must match\"\r\n        );\r\n\r\n        for (uint256 i = 0; i < tokenHolders.length; i++) {\r\n            mint(tokenHolders[i], amounts[i]);\r\n        }\r\n    }\r\n\r\n    function burnFrom(address account, uint256 amount)\r\n        public\r\n        override\r\n        onlyOwner\r\n    {\r\n        super._burn(account, amount);\r\n    }\r\n\r\n    function transfer(address recipient, uint256 amount)\r\n        public\r\n        virtual\r\n        override\r\n        onlyWhitelisted\r\n        returns (bool)\r\n    {\r\n        _transfer(_msgSender(), recipient, amount);\r\n        return true;\r\n    }\r\n\r\n    function whitelistAdd(address _add) external onlyOwner {\r\n        whitelist[_add] = true;\r\n    }\r\n}\r\n",
  "sourcePath": "C:\\Users\\CunhaPc\\Documents\\pcunhadev\\zerodefi\\rep-contract\\truffle\\contracts\\Reputation.sol",
  "compiler": {
    "name": "solc",
    "version": "0.8.12+commit.f00d7308.Emscripten.clang"
  },
  "schemaVersion": "3.4.6",
  "updatedAt": "2022-03-19T16:05:44.268Z",
  "networkType": "ethereum",
  "devdoc": {
    "kind": "dev",
    "methods": {
      "allowance(address,address)": {
        "details": "See {IERC20-allowance}."
      },
      "approve(address,uint256)": {
        "details": "See {IERC20-approve}. NOTE: If `amount` is the maximum `uint256`, the allowance is not updated on `transferFrom`. This is semantically equivalent to an infinite approval. Requirements: - `spender` cannot be the zero address."
      },
      "balanceOf(address)": {
        "details": "See {IERC20-balanceOf}."
      },
      "burn(uint256)": {
        "details": "Destroys `amount` tokens from the caller. See {ERC20-_burn}."
      },
      "burnFrom(address,uint256)": {
        "details": "Destroys `amount` tokens from `account`, deducting from the caller's allowance. See {ERC20-_burn} and {ERC20-allowance}. Requirements: - the caller must have allowance for ``accounts``'s tokens of at least `amount`."
      },
      "decimals()": {
        "details": "Returns the number of decimals used to get its user representation. For example, if `decimals` equals `2`, a balance of `505` tokens should be displayed to a user as `5.05` (`505 / 10 ** 2`). Tokens usually opt for a value of 18, imitating the relationship between Ether and Wei. This is the value {ERC20} uses, unless this function is overridden; NOTE: This information is only used for _display_ purposes: it in no way affects any of the arithmetic of the contract, including {IERC20-balanceOf} and {IERC20-transfer}."
      },
      "decreaseAllowance(address,uint256)": {
        "details": "Atomically decreases the allowance granted to `spender` by the caller. This is an alternative to {approve} that can be used as a mitigation for problems described in {IERC20-approve}. Emits an {Approval} event indicating the updated allowance. Requirements: - `spender` cannot be the zero address. - `spender` must have allowance for the caller of at least `subtractedValue`."
      },
      "increaseAllowance(address,uint256)": {
        "details": "Atomically increases the allowance granted to `spender` by the caller. This is an alternative to {approve} that can be used as a mitigation for problems described in {IERC20-approve}. Emits an {Approval} event indicating the updated allowance. Requirements: - `spender` cannot be the zero address."
      },
      "name()": {
        "details": "Returns the name of the token."
      },
      "owner()": {
        "details": "Returns the address of the current owner."
      },
      "renounceOwnership()": {
        "details": "Leaves the contract without owner. It will not be possible to call `onlyOwner` functions anymore. Can only be called by the current owner. NOTE: Renouncing ownership will leave the contract without an owner, thereby removing any functionality that is only available to the owner."
      },
      "symbol()": {
        "details": "Returns the symbol of the token, usually a shorter version of the name."
      },
      "totalSupply()": {
        "details": "See {IERC20-totalSupply}."
      },
      "transferFrom(address,address,uint256)": {
        "details": "See {IERC20-transferFrom}. Emits an {Approval} event indicating the updated allowance. This is not required by the EIP. See the note at the beginning of {ERC20}. NOTE: Does not update the allowance if the current allowance is the maximum `uint256`. Requirements: - `from` and `to` cannot be the zero address. - `from` must have a balance of at least `amount`. - the caller must have allowance for ``from``'s tokens of at least `amount`."
      },
      "transferOwnership(address)": {
        "details": "Transfers ownership of the contract to a new account (`newOwner`). Can only be called by the current owner."
      }
    },
    "version": 1
  },
  "userdoc": {
    "kind": "user",
    "methods": {},
    "version": 1
  }
}